{
  "contractName": "AdContracts",
  "abi": [
    {
      "constant": true,
      "inputs": [],
      "name": "purchasesCount",
      "outputs": [
        {
          "name": "",
          "type": "int256"
        }
      ],
      "payable": false,
      "stateMutability": "view",
      "type": "function"
    },
    {
      "constant": true,
      "inputs": [
        {
          "name": "",
          "type": "int256"
        }
      ],
      "name": "ads",
      "outputs": [
        {
          "name": "id",
          "type": "int256"
        },
        {
          "name": "websiteOwner",
          "type": "address"
        },
        {
          "name": "webUrl",
          "type": "string"
        },
        {
          "name": "price",
          "type": "uint256"
        },
        {
          "name": "time",
          "type": "uint256"
        },
        {
          "name": "views",
          "type": "uint256"
        },
        {
          "name": "purchased",
          "type": "bool"
        },
        {
          "name": "ad",
          "type": "string"
        }
      ],
      "payable": false,
      "stateMutability": "view",
      "type": "function"
    },
    {
      "constant": true,
      "inputs": [],
      "name": "adCount",
      "outputs": [
        {
          "name": "",
          "type": "int256"
        }
      ],
      "payable": false,
      "stateMutability": "view",
      "type": "function"
    },
    {
      "constant": true,
      "inputs": [
        {
          "name": "",
          "type": "int256"
        }
      ],
      "name": "purchases",
      "outputs": [
        {
          "name": "id",
          "type": "int256"
        },
        {
          "name": "webUrl",
          "type": "string"
        },
        {
          "name": "adBuyer",
          "type": "address"
        },
        {
          "name": "views",
          "type": "uint256"
        },
        {
          "name": "status",
          "type": "int256"
        }
      ],
      "payable": false,
      "stateMutability": "view",
      "type": "function"
    },
    {
      "inputs": [],
      "payable": false,
      "stateMutability": "nonpayable",
      "type": "constructor"
    },
    {
      "anonymous": false,
      "inputs": [
        {
          "indexed": true,
          "name": "_adId",
          "type": "int256"
        }
      ],
      "name": "purchaseEvent",
      "type": "event"
    },
    {
      "anonymous": false,
      "inputs": [
        {
          "indexed": true,
          "name": "_adId",
          "type": "int256"
        }
      ],
      "name": "insertEvent",
      "type": "event"
    },
    {
      "constant": false,
      "inputs": [
        {
          "name": "_webUrl",
          "type": "string"
        },
        {
          "name": "_price",
          "type": "uint256"
        },
        {
          "name": "_time",
          "type": "uint256"
        },
        {
          "name": "_views",
          "type": "uint256"
        }
      ],
      "name": "insertAd",
      "outputs": [
        {
          "name": "adId",
          "type": "int256"
        }
      ],
      "payable": false,
      "stateMutability": "nonpayable",
      "type": "function"
    },
    {
      "constant": false,
      "inputs": [
        {
          "name": "_adId",
          "type": "int256"
        },
        {
          "name": "_ad",
          "type": "string"
        }
      ],
      "name": "purchase",
      "outputs": [
        {
          "name": "adId",
          "type": "int256"
        }
      ],
      "payable": true,
      "stateMutability": "payable",
      "type": "function"
    },
    {
      "constant": false,
      "inputs": [
        {
          "name": "_adId",
          "type": "int256"
        }
      ],
      "name": "getAd",
      "outputs": [
        {
          "name": "ad",
          "type": "string"
        }
      ],
      "payable": false,
      "stateMutability": "nonpayable",
      "type": "function"
    },
    {
      "constant": false,
      "inputs": [
        {
          "name": "_adId",
          "type": "int256"
        }
      ],
      "name": "purchaseStatus",
      "outputs": [
        {
          "name": "status",
          "type": "int256"
        }
      ],
      "payable": false,
      "stateMutability": "nonpayable",
      "type": "function"
    }
  ],
  "bytecode": "0x60806040526040518060a0016040528060708152602001620016b26070913960009080519060200190620000359291906200004a565b503480156200004357600080fd5b50620000f9565b828054600181600116156101000203166002900490600052602060002090601f016020900481019282601f106200008d57805160ff1916838001178555620000be565b82800160010185558215620000be579182015b82811115620000bd578251825591602001919060010190620000a0565b5b509050620000cd9190620000d1565b5090565b620000f691905b80821115620000f2576000816000905550600101620000d8565b5090565b90565b6115a980620001096000396000f3fe60806040526004361061007b5760003560e01c80639c89dcf31161004e5780639c89dcf3146103d3578063dd0e82ed146103fe578063ee3b9921146104d7578063f2620d49146105d35761007b565b8063388e7836146100805780634bdd22f614610134578063509040811461022e5780637e396f1914610259575b600080fd5b34801561008c57600080fd5b506100b9600480360360208110156100a357600080fd5b8101908080359060200190929190505050610622565b6040518080602001828103825283818151815260200191508051906020019080838360005b838110156100f95780820151818401526020810190506100de565b50505050905090810190601f1680156101265780820380516001836020036101000a031916815260200191505b509250505060405180910390f35b34801561014057600080fd5b506102186004803603608081101561015757600080fd5b810190808035906020019064010000000081111561017457600080fd5b82018360208201111561018657600080fd5b803590602001918460018302840111640100000000831117156101a857600080fd5b91908080601f016020809104026020016040519081016040528093929190818152602001838380828437600081840152601f19601f8201169050808301925050505050505091929192908035906020019092919080359060200190929190803590602001909291905050506109b5565b6040518082815260200191505060405180910390f35b34801561023a57600080fd5b50610243610bd5565b6040518082815260200191505060405180910390f35b34801561026557600080fd5b506102926004803603602081101561027c57600080fd5b8101908080359060200190929190505050610bdb565b604051808981526020018873ffffffffffffffffffffffffffffffffffffffff1673ffffffffffffffffffffffffffffffffffffffff168152602001806020018781526020018681526020018581526020018415151515815260200180602001838103835289818151815260200191508051906020019080838360005b8381101561032a57808201518184015260208101905061030f565b50505050905090810190601f1680156103575780820380516001836020036101000a031916815260200191505b50838103825284818151815260200191508051906020019080838360005b83811015610390578082015181840152602081019050610375565b50505050905090810190601f1680156103bd5780820380516001836020036101000a031916815260200191505b509a505050505050505050505060405180910390f35b3480156103df57600080fd5b506103e8610d80565b6040518082815260200191505060405180910390f35b6104c16004803603604081101561041457600080fd5b81019080803590602001909291908035906020019064010000000081111561043b57600080fd5b82018360208201111561044d57600080fd5b8035906020019184600183028401116401000000008311171561046f57600080fd5b91908080601f016020809104026020016040519081016040528093929190818152602001838380828437600081840152601f19601f820116905080830192505050505050509192919290505050610d86565b6040518082815260200191505060405180910390f35b3480156104e357600080fd5b50610510600480360360208110156104fa57600080fd5b8101908080359060200190929190505050611078565b60405180868152602001806020018573ffffffffffffffffffffffffffffffffffffffff1673ffffffffffffffffffffffffffffffffffffffff168152602001848152602001838152602001828103825286818151815260200191508051906020019080838360005b83811015610594578082015181840152602081019050610579565b50505050905090810190601f1680156105c15780820380516001836020036101000a031916815260200191505b50965050505050505060405180910390f35b3480156105df57600080fd5b5061060c600480360360208110156105f657600080fd5b8101908080359060200190929190505050611166565b6040518082815260200191505060405180910390f35b606060008054600181600116156101000203166002900480601f0160208091040260200160405190810160405280929190818152602001828054600181600116156101000203166002900480156106ba5780601f1061068f576101008083540402835291602001916106ba565b820191906000526020600020905b81548152906001019060200180831161069d57829003601f168201915b505050505090506109b0565b8154815290600101906020018083116106c657829003601f16820191505050505090506109b0565b600360008481526020019081526020016000206003015481101561084f573373ffffffffffffffffffffffffffffffffffffffff1660036000858152602001908152602001600020600401828154811061074457fe5b9060005260206000200160009054906101000a900473ffffffffffffffffffffffffffffffffffffffff1673ffffffffffffffffffffffffffffffffffffffff16141561084257600160008481526020019081526020016000206007018054600181600116156101000203166002900480601f0160208091040260200160405190810160405280929190818152602001828054600181600116156101000203166002900480156108355780601f1061080a57610100808354040283529160200191610835565b820191906000526020600020905b81548152906001019060200180831161081857829003601f168201915b50505050509150506109b0565b80806001019150506106ee565b50600360008381526020019081526020016000206004013390806001815401808255809150509060018203906000526020600020016000909192909190916101000a81548173ffffffffffffffffffffffffffffffffffffffff021916908373ffffffffffffffffffffffffffffffffffffffff1602179055505060016003600084815260200190815260200160002060030154016003600084815260200190815260200160002060030181905550600160008381526020019081526020016000206007018054600181600116156101000203166002900480601f0160208091040260200160405190810160405280929190818152602001828054600181600116156101000203166002900480156109a85780601f1061097d576101008083540402835291602001916109a8565b820191906000526020600020905b81548152906001019060200180831161098b57829003601f168201915b505050505090505b919050565b600060026000815480929190600101919050555060405180610100016040528060025481526020013373ffffffffffffffffffffffffffffffffffffffff16815260200186815260200185815260200184815260200183815260200160001515815260200160008054600181600116156101000203166002900480601f016020809104026020016040519081016040528092919081815260200182805460018160011615610100020316600290048015610ab05780601f10610a8557610100808354040283529160200191610ab0565b820191906000526020600020905b815481529060010190602001808311610a9357829003601f168201915b50505050508152506001600060025481526020019081526020016000206000820151816000015560208201518160010160006101000a81548173ffffffffffffffffffffffffffffffffffffffff021916908373ffffffffffffffffffffffffffffffffffffffff1602179055506040820151816002019080519060200190610b3a92919061138b565b50606082015181600301556080820151816004015560a0820151816005015560c08201518160060160006101000a81548160ff02191690831515021790555060e0820151816007019080519060200190610b9592919061138b565b509050506002547f0d0446e81bd59b4b39d39d3a030c9f2412cfa30fefcc04adfad5d9702f13b55a60405160405180910390a26002549050949350505050565b60045481565b60016020528060005260406000206000915090508060000154908060010160009054906101000a900473ffffffffffffffffffffffffffffffffffffffff1690806002018054600181600116156101000203166002900480601f016020809104026020016040519081016040528092919081815260200182805460018160011615610100020316600290048015610cb35780601f10610c8857610100808354040283529160200191610cb3565b820191906000526020600020905b815481529060010190602001808311610c9657829003601f168201915b5050505050908060030154908060040154908060050154908060060160009054906101000a900460ff1690806007018054600181600116156101000203166002900480601f016020809104026020016040519081016040528092919081815260200182805460018160011615610100020316600290048015610d765780601f10610d4b57610100808354040283529160200191610d76565b820191906000526020600020905b815481529060010190602001808311610d5957829003601f168201915b5050505050905088565b60025481565b60008083138015610d9957506002548313155b610da257600080fd5b6001600084815260200190815260200160002060030154341015610dc557600080fd5b6004600081548092919060010191905055506040518060c00160405280848152602001600160008681526020019081526020016000206002018054600181600116156101000203166002900480601f016020809104026020016040519081016040528092919081815260200182805460018160011615610100020316600290048015610e925780601f10610e6757610100808354040283529160200191610e92565b820191906000526020600020905b815481529060010190602001808311610e7557829003601f168201915b505050505081526020013373ffffffffffffffffffffffffffffffffffffffff168152602001600081526020016000604051908082528060200260200182016040528015610eef5781602001602082028038833980820191505090505b5081526020016000815250600360006004548152602001908152602001600020600082015181600001556020820151816001019080519060200190610f3592919061138b565b5060408201518160020160006101000a81548173ffffffffffffffffffffffffffffffffffffffff021916908373ffffffffffffffffffffffffffffffffffffffff160217905550606082015181600301556080820151816004019080519060200190610fa392919061140b565b5060a08201518160050155905050600180600085815260200190815260200160002060060160006101000a81548160ff02191690831515021790555081600160008581526020019081526020016000206007019080519060200190611009929190611495565b50603c60016000858152602001908152602001600020600401540242016001600085815260200190815260200160002060040181905550827f1e07055b792c2583ca2de65adb485c8b7d64fae8e0e7315f414049f32236411060405160405180910390a2600454905092915050565b6003602052806000526040600020600091509050806000015490806001018054600181600116156101000203166002900480601f01602080910402602001604051908101604052809291908181526020018280546001816001161561010002031660029004801561112a5780601f106110ff5761010080835404028352916020019161112a565b820191906000526020600020905b81548152906001019060200180831161110d57829003601f168201915b5050505050908060020160009054906101000a900473ffffffffffffffffffffffffffffffffffffffff16908060030154908060050154905085565b6000808213801561117957506002548213155b61118257600080fd5b6000670de0b6b3a7640000600160008581526020019081526020016000206003015402905060006003600085815260200190815260200160002060050154146111e4576003600084815260200190815260200160002060050154915050611386565b600160008481526020019081526020016000206004015442101561120c576000915050611386565b6003600084815260200190815260200160002060030154600160008581526020019081526020016000206005015411156112e357600160036000858152602001908152602001600020600501819055506003600084815260200190815260200160002060020160009054906101000a900473ffffffffffffffffffffffffffffffffffffffff1673ffffffffffffffffffffffffffffffffffffffff166108fc829081150290604051600060405180830381858888f193505050501580156112d8573d6000803e3d6000fd5b506001915050611386565b60026003600085815260200190815260200160002060050181905550600291506001600084815260200190815260200160002060010160009054906101000a900473ffffffffffffffffffffffffffffffffffffffff1673ffffffffffffffffffffffffffffffffffffffff166108fc829081150290604051600060405180830381858888f1935050505015801561137f573d6000803e3d6000fd5b5060029150505b919050565b828054600181600116156101000203166002900490600052602060002090601f016020900481019282601f106113cc57805160ff19168380011785556113fa565b828001600101855582156113fa579182015b828111156113f95782518255916020019190600101906113de565b5b5090506114079190611515565b5090565b828054828255906000526020600020908101928215611484579160200282015b828111156114835782518260006101000a81548173ffffffffffffffffffffffffffffffffffffffff021916908373ffffffffffffffffffffffffffffffffffffffff1602179055509160200191906001019061142b565b5b509050611491919061153a565b5090565b828054600181600116156101000203166002900490600052602060002090601f016020900481019282601f106114d657805160ff1916838001178555611504565b82800160010185558215611504579182015b828111156115035782518255916020019190600101906114e8565b5b5090506115119190611515565b5090565b61153791905b8082111561153357600081600090555060010161151b565b5090565b90565b61157a91905b8082111561157657600081816101000a81549073ffffffffffffffffffffffffffffffffffffffff021916905550600101611540565b5090565b9056fea165627a7a723058207d9edbc6d1eab5d55944a2bd21bfa51dff7a0dd9a8ce07ebd8a8b7b62a262b5a002968747470733a2f2f73657276696e672e70686f746f732e70686f746f626f782e636f6d2f3236363930343937333565616434333239303261393234633530636261316431373336626130336239616330363463323761313333636162313838323166393937366535613832302e6a7067",
  "source": "pragma solidity ^0.5.0;\n\n\ncontract AdContracts {\n    // Model a Candidate\n\n    struct Ad {\n        int id;\n        address payable websiteOwner; \n        string webUrl;\n        uint price;\n        uint time;\n        uint views;\n        bool purchased;\n        string ad;\n    }\n    struct Purchase {\n        int id;\n        string webUrl;\n        address payable adBuyer;\n        uint views;\n        address[] viewers;\n        int status;\n    }\n\n    string default_ad = \"https://serving.photos.photobox.com/2669049735ead432902a924c50cba1d1736ba03b9ac064c27a133cab18821f9976e5a820.jpg\";\n\n    mapping(int => Ad) public ads;\n    int public adCount;\n\n    mapping(int => Purchase) public purchases;\n    int public purchasesCount;\n\n    // voted event\n    event purchaseEvent (\n        int indexed _adId\n    );\n\n    event insertEvent (\n        int indexed _adId\n    );\n\n    constructor() public {}\n\n    function insertAd (string memory _webUrl, uint _price, uint _time, uint _views) public returns (int adId) {\n        adCount ++;\n        ads[adCount] = Ad(adCount, msg.sender, _webUrl, _price, _time, _views, false, default_ad);\n\n        emit insertEvent(adCount);\n        return adCount;\n    }\n\n    function purchase (int _adId, string memory _ad) public payable returns (int adId){\n        require(_adId > 0 && _adId <= adCount);\n        require(msg.value >= ads[_adId].price);\n\n        purchasesCount++;\n        purchases[purchasesCount] = Purchase(_adId, ads[_adId].webUrl, msg.sender, 0, new address[](0), 0);\n\n        ads[_adId].purchased = true;\n        ads[_adId].ad = _ad;\n        ads[_adId].time = now + ads[_adId].time*60;\n        \n\n        emit purchaseEvent(_adId);\n        return purchasesCount;\n    }\n\n    function getAd (int _adId) public returns (string memory ad) {\n        // require(_adId > 0 && _adId <= adCount);\n        return default_ad;\n\n        if (now > ads[_adId].time){\n            if(purchases[_adId].status == 0){\n                purchaseStatus(_adId);\n            }\n            return default_ad;\n        }\n\n        for (uint i=0; i<purchases[_adId].views; i++) {\n            if(purchases[_adId].viewers[i] == msg.sender){\n                return ads[_adId].ad;\n            }\n        }\n        purchases[_adId].viewers.push(msg.sender);\n        purchases[_adId].views = purchases[_adId].views + 1;\n\n        return ads[_adId].ad;\n    }\n\n    function purchaseStatus (int _adId) public returns (int status) {\n        require(_adId > 0 && _adId <= adCount);\n\n        uint fixPrice = ads[_adId].price * 1000000000000000000;\n\n        if(purchases[_adId].status != 0){\n            return purchases[_adId].status;\n        }\n\n        if(now < ads[_adId].time){\n            return 0;\n        }\n        if(ads[_adId].views > purchases[_adId].views){\n            purchases[_adId].status = 1;\n            purchases[_adId].adBuyer.transfer(fixPrice);\n            return 1;\n        }\n        purchases[_adId].status = 2;\n        status = 2;\n        ads[_adId].websiteOwner.transfer(fixPrice);\n        return 2;\n    }\n\n\n}",
  "sourcePath": "/home/tomerk/bgu/mini2/buyAdd/contracts/AdContracts.sol",
  "compiler": {
    "name": "solc",
    "version": "0.5.8+commit.23d335f2.Emscripten.clang"
  },
  "schemaVersion": "3.0.11",
  "updatedAt": "2019-08-03T13:03:46.284Z",
  "devdoc": {
    "methods": {}
  },
  "userdoc": {
    "methods": {}
  }
}