{
  "contractName": "AdContracts",
  "abi": [
    {
      "constant": true,
      "inputs": [],
      "name": "purchasesCount",
      "outputs": [
        {
          "name": "",
          "type": "int256"
        }
      ],
      "payable": false,
      "stateMutability": "view",
      "type": "function"
    },
    {
      "constant": true,
      "inputs": [
        {
          "name": "",
          "type": "int256"
        }
      ],
      "name": "ads",
      "outputs": [
        {
          "name": "id",
          "type": "int256"
        },
        {
          "name": "websiteOwner",
          "type": "address"
        },
        {
          "name": "webUrl",
          "type": "string"
        },
        {
          "name": "price",
          "type": "uint256"
        },
        {
          "name": "time",
          "type": "uint256"
        },
        {
          "name": "views",
          "type": "uint256"
        },
        {
          "name": "purchased",
          "type": "bool"
        },
        {
          "name": "ad",
          "type": "string"
        }
      ],
      "payable": false,
      "stateMutability": "view",
      "type": "function"
    },
    {
      "constant": true,
      "inputs": [],
      "name": "adCount",
      "outputs": [
        {
          "name": "",
          "type": "int256"
        }
      ],
      "payable": false,
      "stateMutability": "view",
      "type": "function"
    },
    {
      "constant": true,
      "inputs": [
        {
          "name": "",
          "type": "int256"
        }
      ],
      "name": "purchases",
      "outputs": [
        {
          "name": "id",
          "type": "int256"
        },
        {
          "name": "webUrl",
          "type": "string"
        },
        {
          "name": "adBuyer",
          "type": "address"
        },
        {
          "name": "views",
          "type": "uint256"
        },
        {
          "name": "status",
          "type": "int256"
        }
      ],
      "payable": false,
      "stateMutability": "view",
      "type": "function"
    },
    {
      "inputs": [],
      "payable": false,
      "stateMutability": "nonpayable",
      "type": "constructor"
    },
    {
      "anonymous": false,
      "inputs": [
        {
          "indexed": true,
          "name": "_adId",
          "type": "int256"
        }
      ],
      "name": "purchaseEvent",
      "type": "event"
    },
    {
      "anonymous": false,
      "inputs": [
        {
          "indexed": true,
          "name": "_adId",
          "type": "int256"
        }
      ],
      "name": "insertEvent",
      "type": "event"
    },
    {
      "anonymous": false,
      "inputs": [
        {
          "indexed": false,
          "name": "ad",
          "type": "string"
        }
      ],
      "name": "getAdEvent",
      "type": "event"
    },
    {
      "constant": false,
      "inputs": [
        {
          "name": "_webUrl",
          "type": "string"
        },
        {
          "name": "_price",
          "type": "uint256"
        },
        {
          "name": "_time",
          "type": "uint256"
        },
        {
          "name": "_views",
          "type": "uint256"
        }
      ],
      "name": "insertAd",
      "outputs": [
        {
          "name": "adId",
          "type": "int256"
        }
      ],
      "payable": false,
      "stateMutability": "nonpayable",
      "type": "function"
    },
    {
      "constant": false,
      "inputs": [
        {
          "name": "_adId",
          "type": "int256"
        },
        {
          "name": "_ad",
          "type": "string"
        }
      ],
      "name": "purchase",
      "outputs": [
        {
          "name": "adId",
          "type": "int256"
        }
      ],
      "payable": true,
      "stateMutability": "payable",
      "type": "function"
    },
    {
      "constant": false,
      "inputs": [
        {
          "name": "_adId",
          "type": "int256"
        }
      ],
      "name": "getAd",
      "outputs": [
        {
          "name": "ad",
          "type": "string"
        }
      ],
      "payable": false,
      "stateMutability": "nonpayable",
      "type": "function"
    },
    {
      "constant": false,
      "inputs": [
        {
          "name": "_adId",
          "type": "int256"
        }
      ],
      "name": "purchaseStatus",
      "outputs": [
        {
          "name": "status",
          "type": "int256"
        }
      ],
      "payable": false,
      "stateMutability": "nonpayable",
      "type": "function"
    }
  ],
  "bytecode": "0x6080604052604051806060016040528060288152602001620018c36028913960009080519060200190620000359291906200004a565b503480156200004357600080fd5b50620000f9565b828054600181600116156101000203166002900490600052602060002090601f016020900481019282601f106200008d57805160ff1916838001178555620000be565b82800160010185558215620000be579182015b82811115620000bd578251825591602001919060010190620000a0565b5b509050620000cd9190620000d1565b5090565b620000f691905b80821115620000f2576000816000905550600101620000d8565b5090565b90565b6117ba80620001096000396000f3fe60806040526004361061007b5760003560e01c80639c89dcf31161004e5780639c89dcf3146103d3578063dd0e82ed146103fe578063ee3b9921146104d7578063f2620d49146105d35761007b565b8063388e7836146100805780634bdd22f614610134578063509040811461022e5780637e396f1914610259575b600080fd5b34801561008c57600080fd5b506100b9600480360360208110156100a357600080fd5b8101908080359060200190929190505050610622565b6040518080602001828103825283818151815260200191508051906020019080838360005b838110156100f95780820151818401526020810190506100de565b50505050905090810190601f1680156101265780820380516001836020036101000a031916815260200191505b509250505060405180910390f35b34801561014057600080fd5b506102186004803603608081101561015757600080fd5b810190808035906020019064010000000081111561017457600080fd5b82018360208201111561018657600080fd5b803590602001918460018302840111640100000000831117156101a857600080fd5b91908080601f016020809104026020016040519081016040528093929190818152602001838380828437600081840152601f19601f820116905080830192505050505050509192919290803590602001909291908035906020019092919080359060200190929190505050610c22565b6040518082815260200191505060405180910390f35b34801561023a57600080fd5b50610243610e13565b6040518082815260200191505060405180910390f35b34801561026557600080fd5b506102926004803603602081101561027c57600080fd5b8101908080359060200190929190505050610e19565b604051808981526020018873ffffffffffffffffffffffffffffffffffffffff1673ffffffffffffffffffffffffffffffffffffffff168152602001806020018781526020018681526020018581526020018415151515815260200180602001838103835289818151815260200191508051906020019080838360005b8381101561032a57808201518184015260208101905061030f565b50505050905090810190601f1680156103575780820380516001836020036101000a031916815260200191505b50838103825284818151815260200191508051906020019080838360005b83811015610390578082015181840152602081019050610375565b50505050905090810190601f1680156103bd5780820380516001836020036101000a031916815260200191505b509a505050505050505050505060405180910390f35b3480156103df57600080fd5b506103e8610fbe565b6040518082815260200191505060405180910390f35b6104c16004803603604081101561041457600080fd5b81019080803590602001909291908035906020019064010000000081111561043b57600080fd5b82018360208201111561044d57600080fd5b8035906020019184600183028401116401000000008311171561046f57600080fd5b91908080601f016020809104026020016040519081016040528093929190818152602001838380828437600081840152601f19601f820116905080830192505050505050509192919290505050610fc4565b6040518082815260200191505060405180910390f35b3480156104e357600080fd5b50610510600480360360208110156104fa57600080fd5b8101908080359060200190929190505050611289565b60405180868152602001806020018573ffffffffffffffffffffffffffffffffffffffff1673ffffffffffffffffffffffffffffffffffffffff168152602001848152602001838152602001828103825286818151815260200191508051906020019080838360005b83811015610594578082015181840152602081019050610579565b50505050905090810190601f1680156105c15780820380516001836020036101000a031916815260200191505b50965050505050505060405180910390f35b3480156105df57600080fd5b5061060c600480360360208110156105f657600080fd5b8101908080359060200190929190505050611377565b6040518082815260200191505060405180910390f35b606060008213801561063657506002548213155b61063f57600080fd5b60016000838152602001908152602001600020600401544211156107b9577f3190c1348d080d04cddccfdfaa4593a24e701590568f21ec43f89bd7c53720c0600060405180806020018281038252838181546001816001161561010002031660029004815260200191508054600181600116156101000203166002900480156107095780601f106106de57610100808354040283529160200191610709565b820191906000526020600020905b8154815290600101906020018083116106ec57829003601f168201915b50509250505060405180910390a160008054600181600116156101000203166002900480601f0160208091040260200160405190810160405280929190818152602001828054600181600116156101000203166002900480156107ad5780601f10610782576101008083540402835291602001916107ad565b820191906000526020600020905b81548152906001019060200180831161079057829003601f168201915b50505050509050610c1d565b60008090505b60036000848152602001908152602001600020600301548110156109ee573373ffffffffffffffffffffffffffffffffffffffff1660036000858152602001908152602001600020600401828154811061081557fe5b9060005260206000200160009054906101000a900473ffffffffffffffffffffffffffffffffffffffff1673ffffffffffffffffffffffffffffffffffffffff1614156109e1577f3190c1348d080d04cddccfdfaa4593a24e701590568f21ec43f89bd7c53720c060016000858152602001908152602001600020600701604051808060200182810382528381815460018160011615610100020316600290048152602001915080546001816001161561010002031660029004801561091c5780601f106108f15761010080835404028352916020019161091c565b820191906000526020600020905b8154815290600101906020018083116108ff57829003601f168201915b50509250505060405180910390a1600160008481526020019081526020016000206007018054600181600116156101000203166002900480601f0160208091040260200160405190810160405280929190818152602001828054600181600116156101000203166002900480156109d45780601f106109a9576101008083540402835291602001916109d4565b820191906000526020600020905b8154815290600101906020018083116109b757829003601f168201915b5050505050915050610c1d565b80806001019150506107bf565b50600360008381526020019081526020016000206004013390806001815401808255809150509060018203906000526020600020016000909192909190916101000a81548173ffffffffffffffffffffffffffffffffffffffff021916908373ffffffffffffffffffffffffffffffffffffffff16021790555050600160036000848152602001908152602001600020600301540160036000848152602001908152602001600020600301819055507f3190c1348d080d04cddccfdfaa4593a24e701590568f21ec43f89bd7c53720c0600160008481526020019081526020016000206007016040518080602001828103825283818154600181600116156101000203166002900481526020019150805460018160011615610100020316600290048015610b5d5780601f10610b3257610100808354040283529160200191610b5d565b820191906000526020600020905b815481529060010190602001808311610b4057829003601f168201915b50509250505060405180910390a1600160008381526020019081526020016000206007018054600181600116156101000203166002900480601f016020809104026020016040519081016040528092919081815260200182805460018160011615610100020316600290048015610c155780601f10610bea57610100808354040283529160200191610c15565b820191906000526020600020905b815481529060010190602001808311610bf857829003601f168201915b505050505090505b919050565b600060026000815480929190600101919050555060405180610100016040528060025481526020013373ffffffffffffffffffffffffffffffffffffffff16815260200186815260200185815260200184815260200183815260200160001515815260200160008054600181600116156101000203166002900480601f016020809104026020016040519081016040528092919081815260200182805460018160011615610100020316600290048015610d1d5780601f10610cf257610100808354040283529160200191610d1d565b820191906000526020600020905b815481529060010190602001808311610d0057829003601f168201915b50505050508152506001600060025481526020019081526020016000206000820151816000015560208201518160010160006101000a81548173ffffffffffffffffffffffffffffffffffffffff021916908373ffffffffffffffffffffffffffffffffffffffff1602179055506040820151816002019080519060200190610da792919061159c565b50606082015181600301556080820151816004015560a0820151816005015560c08201518160060160006101000a81548160ff02191690831515021790555060e0820151816007019080519060200190610e0292919061159c565b509050506002549050949350505050565b60045481565b60016020528060005260406000206000915090508060000154908060010160009054906101000a900473ffffffffffffffffffffffffffffffffffffffff1690806002018054600181600116156101000203166002900480601f016020809104026020016040519081016040528092919081815260200182805460018160011615610100020316600290048015610ef15780601f10610ec657610100808354040283529160200191610ef1565b820191906000526020600020905b815481529060010190602001808311610ed457829003601f168201915b5050505050908060030154908060040154908060050154908060060160009054906101000a900460ff1690806007018054600181600116156101000203166002900480601f016020809104026020016040519081016040528092919081815260200182805460018160011615610100020316600290048015610fb45780601f10610f8957610100808354040283529160200191610fb4565b820191906000526020600020905b815481529060010190602001808311610f9757829003601f168201915b5050505050905088565b60025481565b60008083138015610fd757506002548313155b610fe057600080fd5b600160008481526020019081526020016000206003015434101561100357600080fd5b6004600081548092919060010191905055506040518060c00160405280848152602001600160008681526020019081526020016000206002018054600181600116156101000203166002900480601f0160208091040260200160405190810160405280929190818152602001828054600181600116156101000203166002900480156110d05780601f106110a5576101008083540402835291602001916110d0565b820191906000526020600020905b8154815290600101906020018083116110b357829003601f168201915b505050505081526020013373ffffffffffffffffffffffffffffffffffffffff16815260200160008152602001600060405190808252806020026020018201604052801561112d5781602001602082028038833980820191505090505b508152602001600081525060036000600454815260200190815260200160002060008201518160000155602082015181600101908051906020019061117392919061159c565b5060408201518160020160006101000a81548173ffffffffffffffffffffffffffffffffffffffff021916908373ffffffffffffffffffffffffffffffffffffffff1602179055506060820151816003015560808201518160040190805190602001906111e192919061161c565b5060a08201518160050155905050600180600085815260200190815260200160002060060160006101000a81548160ff021916908315150217905550816001600085815260200190815260200160002060070190805190602001906112479291906116a6565b50603c60016000858152602001908152602001600020600401540242016001600085815260200190815260200160002060040181905550600454905092915050565b6003602052806000526040600020600091509050806000015490806001018054600181600116156101000203166002900480601f01602080910402602001604051908101604052809291908181526020018280546001816001161561010002031660029004801561133b5780601f106113105761010080835404028352916020019161133b565b820191906000526020600020905b81548152906001019060200180831161131e57829003601f168201915b5050505050908060020160009054906101000a900473ffffffffffffffffffffffffffffffffffffffff16908060030154908060050154905085565b6000808213801561138a57506002548213155b61139357600080fd5b6000670de0b6b3a7640000600160008581526020019081526020016000206003015402905060006003600085815260200190815260200160002060050154146113f5576003600084815260200190815260200160002060050154915050611597565b600160008481526020019081526020016000206004015442101561141d576000915050611597565b6003600084815260200190815260200160002060030154600160008581526020019081526020016000206005015411156114f457600160036000858152602001908152602001600020600501819055506003600084815260200190815260200160002060020160009054906101000a900473ffffffffffffffffffffffffffffffffffffffff1673ffffffffffffffffffffffffffffffffffffffff166108fc829081150290604051600060405180830381858888f193505050501580156114e9573d6000803e3d6000fd5b506001915050611597565b60026003600085815260200190815260200160002060050181905550600291506001600084815260200190815260200160002060010160009054906101000a900473ffffffffffffffffffffffffffffffffffffffff1673ffffffffffffffffffffffffffffffffffffffff166108fc829081150290604051600060405180830381858888f19350505050158015611590573d6000803e3d6000fd5b5060029150505b919050565b828054600181600116156101000203166002900490600052602060002090601f016020900481019282601f106115dd57805160ff191683800117855561160b565b8280016001018555821561160b579182015b8281111561160a5782518255916020019190600101906115ef565b5b5090506116189190611726565b5090565b828054828255906000526020600020908101928215611695579160200282015b828111156116945782518260006101000a81548173ffffffffffffffffffffffffffffffffffffffff021916908373ffffffffffffffffffffffffffffffffffffffff1602179055509160200191906001019061163c565b5b5090506116a2919061174b565b5090565b828054600181600116156101000203166002900490600052602060002090601f016020900481019282601f106116e757805160ff1916838001178555611715565b82800160010185558215611715579182015b828111156117145782518255916020019190600101906116f9565b5b5090506117229190611726565b5090565b61174891905b8082111561174457600081600090555060010161172c565b5090565b90565b61178b91905b8082111561178757600081816101000a81549073ffffffffffffffffffffffffffffffffffffffff021916905550600101611751565b5090565b9056fea165627a7a7230582022cdb62173c56f6af1a64a2c69ff1dfbf46cc3fa6bff3444f5a1d040b702e7fc002968747470733a2f2f692e6962622e636f2f524837635035532f64656661756c742d6164642e706e67",
  "source": "pragma solidity ^0.5.0;\n\n\ncontract AdContracts {\n\n    struct Ad {\n        int id;\n        address payable websiteOwner; \n        string webUrl;\n        uint price;\n        uint time;\n        uint views;\n        bool purchased;\n        string ad;\n    }\n    struct Purchase {\n        int id;\n        string webUrl;\n        address payable adBuyer;\n        uint views;\n        address[] viewers;\n        int status;\n    }\n\n    string default_ad = \"https://i.ibb.co/RH7cP5S/default-add.png\";\n\n    mapping(int => Ad) public ads;\n    int public adCount;\n\n    mapping(int => Purchase) public purchases;\n    int public purchasesCount;\n\n    // voted event\n    event purchaseEvent (\n        int indexed _adId\n    );\n\n    event insertEvent (\n        int indexed _adId\n    );\n\n    event getAdEvent (\n        string ad\n    );\n\n    constructor() public {}\n\n    function insertAd (string memory _webUrl, uint _price, uint _time, uint _views) public returns (int adId) {\n        adCount ++;\n        ads[adCount] = Ad(adCount, msg.sender, _webUrl, _price, _time, _views, false, default_ad);\n\n        // emit insertEvent(adCount);\n        return adCount;\n    }\n\n    function purchase (int _adId, string memory _ad) public payable returns (int adId){\n        require(_adId > 0 && _adId <= adCount);\n        require(msg.value >= ads[_adId].price);\n\n        purchasesCount++;\n        purchases[purchasesCount] = Purchase(_adId, ads[_adId].webUrl, msg.sender, 0, new address[](0), 0);\n\n        ads[_adId].purchased = true;\n        ads[_adId].ad = _ad;\n        ads[_adId].time = now + ads[_adId].time*60;\n        \n\n        // emit purchaseEvent(_adId);\n        return purchasesCount;\n    }\n\n    function getAd (int _adId) public returns (string memory ad) {\n        require(_adId > 0 && _adId <= adCount);\n\n        if (now > ads[_adId].time){\n\n            emit getAdEvent(default_ad);\n            return default_ad;\n        }\n\n        for (uint i=0; i<purchases[_adId].views; i++) {\n            if(purchases[_adId].viewers[i] == msg.sender){\n                emit getAdEvent(ads[_adId].ad);\n                return ads[_adId].ad;\n            }\n        }\n        purchases[_adId].viewers.push(msg.sender);\n        purchases[_adId].views = purchases[_adId].views + 1;\n        \n        emit getAdEvent(ads[_adId].ad);\n        return ads[_adId].ad;\n    }\n\n    function purchaseStatus (int _adId) public returns (int status) {\n        require(_adId > 0 && _adId <= adCount);\n\n        uint fixPrice = ads[_adId].price * 1000000000000000000;\n\n        if(purchases[_adId].status != 0){\n            return purchases[_adId].status;\n        }\n\n        if(now < ads[_adId].time){\n            return 0;\n        }\n        if(ads[_adId].views > purchases[_adId].views){\n            purchases[_adId].status = 1;\n            purchases[_adId].adBuyer.transfer(fixPrice);\n            return 1;\n        }\n        purchases[_adId].status = 2;\n        status = 2;\n        ads[_adId].websiteOwner.transfer(fixPrice);\n        return 2;\n    }\n\n\n}",
  "sourcePath": "/home/tomerk/bgu/mini2/buyAd/contracts/AdContracts.sol",
  "compiler": {
    "name": "solc",
    "version": "0.5.8+commit.23d335f2.Emscripten.clang"
  },
  "schemaVersion": "3.0.11",
  "updatedAt": "2019-08-05T08:55:36.571Z",
  "devdoc": {
    "methods": {}
  },
  "userdoc": {
    "methods": {}
  }
}