{
  "contractName": "AddContracts",
  "abi": [
    {
      "constant": true,
      "inputs": [
        {
          "name": "",
          "type": "int256"
        }
      ],
      "name": "adds",
      "outputs": [
        {
          "name": "id",
          "type": "int256"
        },
        {
          "name": "websiteOwner",
          "type": "address"
        },
        {
          "name": "webUrl",
          "type": "string"
        },
        {
          "name": "price",
          "type": "uint256"
        },
        {
          "name": "time",
          "type": "uint256"
        },
        {
          "name": "views",
          "type": "uint256"
        },
        {
          "name": "purchased",
          "type": "bool"
        },
        {
          "name": "add",
          "type": "string"
        }
      ],
      "payable": false,
      "stateMutability": "view",
      "type": "function"
    },
    {
      "constant": true,
      "inputs": [],
      "name": "purchasesCount",
      "outputs": [
        {
          "name": "",
          "type": "int256"
        }
      ],
      "payable": false,
      "stateMutability": "view",
      "type": "function"
    },
    {
      "constant": true,
      "inputs": [],
      "name": "addCount",
      "outputs": [
        {
          "name": "",
          "type": "int256"
        }
      ],
      "payable": false,
      "stateMutability": "view",
      "type": "function"
    },
    {
      "constant": true,
      "inputs": [
        {
          "name": "",
          "type": "int256"
        }
      ],
      "name": "purchases",
      "outputs": [
        {
          "name": "id",
          "type": "int256"
        },
        {
          "name": "webUrl",
          "type": "string"
        },
        {
          "name": "addBuyer",
          "type": "address"
        },
        {
          "name": "views",
          "type": "uint256"
        },
        {
          "name": "status",
          "type": "int256"
        }
      ],
      "payable": false,
      "stateMutability": "view",
      "type": "function"
    },
    {
      "inputs": [],
      "payable": false,
      "stateMutability": "nonpayable",
      "type": "constructor"
    },
    {
      "anonymous": false,
      "inputs": [
        {
          "indexed": true,
          "name": "_addId",
          "type": "int256"
        }
      ],
      "name": "purchaseEvent",
      "type": "event"
    },
    {
      "anonymous": false,
      "inputs": [
        {
          "indexed": true,
          "name": "_addId",
          "type": "int256"
        }
      ],
      "name": "insertEvent",
      "type": "event"
    },
    {
      "constant": false,
      "inputs": [
        {
          "name": "_webUrl",
          "type": "string"
        },
        {
          "name": "_price",
          "type": "uint256"
        },
        {
          "name": "_time",
          "type": "uint256"
        },
        {
          "name": "_views",
          "type": "uint256"
        }
      ],
      "name": "insertAdd",
      "outputs": [
        {
          "name": "addId",
          "type": "int256"
        }
      ],
      "payable": false,
      "stateMutability": "nonpayable",
      "type": "function"
    },
    {
      "constant": false,
      "inputs": [
        {
          "name": "_addId",
          "type": "int256"
        },
        {
          "name": "_add",
          "type": "string"
        }
      ],
      "name": "purchase",
      "outputs": [],
      "payable": true,
      "stateMutability": "payable",
      "type": "function"
    },
    {
      "constant": false,
      "inputs": [
        {
          "name": "_addId",
          "type": "int256"
        }
      ],
      "name": "getAdd",
      "outputs": [
        {
          "name": "add",
          "type": "string"
        }
      ],
      "payable": false,
      "stateMutability": "nonpayable",
      "type": "function"
    },
    {
      "constant": false,
      "inputs": [
        {
          "name": "_addId",
          "type": "int256"
        }
      ],
      "name": "purchaseStatus",
      "outputs": [
        {
          "name": "status",
          "type": "int256"
        }
      ],
      "payable": false,
      "stateMutability": "nonpayable",
      "type": "function"
    }
  ],
  "bytecode": "0x60806040526040518060400160405280600581526020017f4845454c4f000000000000000000000000000000000000000000000000000000815250600090805190602001906200005192919062000066565b503480156200005f57600080fd5b5062000115565b828054600181600116156101000203166002900490600052602060002090601f016020900481019282601f10620000a957805160ff1916838001178555620000da565b82800160010185558215620000da579182015b82811115620000d9578251825591602001919060010190620000bc565b5b509050620000e99190620000ed565b5090565b6200011291905b808211156200010e576000816000905550600101620000f4565b5090565b90565b6115ce80620001256000396000f3fe60806040526004361061007b5760003560e01c8063ae1562061161004e578063ae15620614610304578063dd0e82ed146103fe578063ee3b9921146104c3578063f2620d49146105bf5761007b565b8063116c34041461008057806350904081146101fa57806365e81f51146102255780636cefce6e146102d9575b600080fd5b34801561008c57600080fd5b506100b9600480360360208110156100a357600080fd5b810190808035906020019092919050505061060e565b604051808981526020018873ffffffffffffffffffffffffffffffffffffffff1673ffffffffffffffffffffffffffffffffffffffff168152602001806020018781526020018681526020018581526020018415151515815260200180602001838103835289818151815260200191508051906020019080838360005b83811015610151578082015181840152602081019050610136565b50505050905090810190601f16801561017e5780820380516001836020036101000a031916815260200191505b50838103825284818151815260200191508051906020019080838360005b838110156101b757808201518184015260208101905061019c565b50505050905090810190601f1680156101e45780820380516001836020036101000a031916815260200191505b509a505050505050505050505060405180910390f35b34801561020657600080fd5b5061020f6107b3565b6040518082815260200191505060405180910390f35b34801561023157600080fd5b5061025e6004803603602081101561024857600080fd5b81019080803590602001909291905050506107b9565b6040518080602001828103825283818151815260200191508051906020019080838360005b8381101561029e578082015181840152602081019050610283565b50505050905090810190601f1680156102cb5780820380516001836020036101000a031916815260200191505b509250505060405180910390f35b3480156102e557600080fd5b506102ee610b8d565b6040518082815260200191505060405180910390f35b34801561031057600080fd5b506103e86004803603608081101561032757600080fd5b810190808035906020019064010000000081111561034457600080fd5b82018360208201111561035657600080fd5b8035906020019184600183028401116401000000008311171561037857600080fd5b91908080601f016020809104026020016040519081016040528093929190818152602001838380828437600081840152601f19601f820116905080830192505050505050509192919290803590602001909291908035906020019092919080359060200190929190505050610b93565b6040518082815260200191505060405180910390f35b6104c16004803603604081101561041457600080fd5b81019080803590602001909291908035906020019064010000000081111561043b57600080fd5b82018360208201111561044d57600080fd5b8035906020019184600183028401116401000000008311171561046f57600080fd5b91908080601f016020809104026020016040519081016040528093929190818152602001838380828437600081840152601f19601f820116905080830192505050505050509192919290505050610db3565b005b3480156104cf57600080fd5b506104fc600480360360208110156104e657600080fd5b810190808035906020019092919050505061109d565b60405180868152602001806020018573ffffffffffffffffffffffffffffffffffffffff1673ffffffffffffffffffffffffffffffffffffffff168152602001848152602001838152602001828103825286818151815260200191508051906020019080838360005b83811015610580578082015181840152602081019050610565565b50505050905090810190601f1680156105ad5780820380516001836020036101000a031916815260200191505b50965050505050505060405180910390f35b3480156105cb57600080fd5b506105f8600480360360208110156105e257600080fd5b810190808035906020019092919050505061118b565b6040518082815260200191505060405180910390f35b60016020528060005260406000206000915090508060000154908060010160009054906101000a900473ffffffffffffffffffffffffffffffffffffffff1690806002018054600181600116156101000203166002900480601f0160208091040260200160405190810160405280929190818152602001828054600181600116156101000203166002900480156106e65780601f106106bb576101008083540402835291602001916106e6565b820191906000526020600020905b8154815290600101906020018083116106c957829003601f168201915b5050505050908060030154908060040154908060050154908060060160009054906101000a900460ff1690806007018054600181600116156101000203166002900480601f0160208091040260200160405190810160405280929190818152602001828054600181600116156101000203166002900480156107a95780601f1061077e576101008083540402835291602001916107a9565b820191906000526020600020905b81548152906001019060200180831161078c57829003601f168201915b5050505050905088565b60045481565b60606000821380156107cd57506002548213155b6107d657600080fd5b60016000838152602001908152602001600020600401544211156108c05760006003600084815260200190815260200160002060050154141561081e5761081c8261118b565b505b60008054600181600116156101000203166002900480601f0160208091040260200160405190810160405280929190818152602001828054600181600116156101000203166002900480156108b45780601f10610889576101008083540402835291602001916108b4565b820191906000526020600020905b81548152906001019060200180831161089757829003601f168201915b50505050509050610b88565b60008090505b6003600084815260200190815260200160002060030154811015610a27573373ffffffffffffffffffffffffffffffffffffffff1660036000858152602001908152602001600020600401828154811061091c57fe5b9060005260206000200160009054906101000a900473ffffffffffffffffffffffffffffffffffffffff1673ffffffffffffffffffffffffffffffffffffffff161415610a1a57600160008481526020019081526020016000206007018054600181600116156101000203166002900480601f016020809104026020016040519081016040528092919081815260200182805460018160011615610100020316600290048015610a0d5780601f106109e257610100808354040283529160200191610a0d565b820191906000526020600020905b8154815290600101906020018083116109f057829003601f168201915b5050505050915050610b88565b80806001019150506108c6565b50600360008381526020019081526020016000206004013390806001815401808255809150509060018203906000526020600020016000909192909190916101000a81548173ffffffffffffffffffffffffffffffffffffffff021916908373ffffffffffffffffffffffffffffffffffffffff1602179055505060016003600084815260200190815260200160002060030154016003600084815260200190815260200160002060030181905550600160008381526020019081526020016000206007018054600181600116156101000203166002900480601f016020809104026020016040519081016040528092919081815260200182805460018160011615610100020316600290048015610b805780601f10610b5557610100808354040283529160200191610b80565b820191906000526020600020905b815481529060010190602001808311610b6357829003601f168201915b505050505090505b919050565b60025481565b600060026000815480929190600101919050555060405180610100016040528060025481526020013373ffffffffffffffffffffffffffffffffffffffff16815260200186815260200185815260200184815260200183815260200160001515815260200160008054600181600116156101000203166002900480601f016020809104026020016040519081016040528092919081815260200182805460018160011615610100020316600290048015610c8e5780601f10610c6357610100808354040283529160200191610c8e565b820191906000526020600020905b815481529060010190602001808311610c7157829003601f168201915b50505050508152506001600060025481526020019081526020016000206000820151816000015560208201518160010160006101000a81548173ffffffffffffffffffffffffffffffffffffffff021916908373ffffffffffffffffffffffffffffffffffffffff1602179055506040820151816002019080519060200190610d189291906113b0565b50606082015181600301556080820151816004015560a0820151816005015560c08201518160060160006101000a81548160ff02191690831515021790555060e0820151816007019080519060200190610d739291906113b0565b509050506002547f0d0446e81bd59b4b39d39d3a030c9f2412cfa30fefcc04adfad5d9702f13b55a60405160405180910390a26002549050949350505050565b600082138015610dc557506002548213155b610dce57600080fd5b6001600083815260200190815260200160002060030154341015610df157600080fd5b6004600081548092919060010191905055506040518060c00160405280838152602001600160008581526020019081526020016000206002018054600181600116156101000203166002900480601f016020809104026020016040519081016040528092919081815260200182805460018160011615610100020316600290048015610ebe5780601f10610e9357610100808354040283529160200191610ebe565b820191906000526020600020905b815481529060010190602001808311610ea157829003601f168201915b505050505081526020013373ffffffffffffffffffffffffffffffffffffffff168152602001600081526020016000604051908082528060200260200182016040528015610f1b5781602001602082028038833980820191505090505b5081526020016000815250600360006004548152602001908152602001600020600082015181600001556020820151816001019080519060200190610f619291906113b0565b5060408201518160020160006101000a81548173ffffffffffffffffffffffffffffffffffffffff021916908373ffffffffffffffffffffffffffffffffffffffff160217905550606082015181600301556080820151816004019080519060200190610fcf929190611430565b5060a08201518160050155905050600180600084815260200190815260200160002060060160006101000a81548160ff021916908315150217905550806001600084815260200190815260200160002060070190805190602001906110359291906114ba565b50603c60016000848152602001908152602001600020600401540242016001600084815260200190815260200160002060040181905550817f1e07055b792c2583ca2de65adb485c8b7d64fae8e0e7315f414049f32236411060405160405180910390a25050565b6003602052806000526040600020600091509050806000015490806001018054600181600116156101000203166002900480601f01602080910402602001604051908101604052809291908181526020018280546001816001161561010002031660029004801561114f5780601f106111245761010080835404028352916020019161114f565b820191906000526020600020905b81548152906001019060200180831161113257829003601f168201915b5050505050908060020160009054906101000a900473ffffffffffffffffffffffffffffffffffffffff16908060030154908060050154905085565b6000808213801561119e57506002548213155b6111a757600080fd5b6000670de0b6b3a7640000600160008581526020019081526020016000206003015402905060006003600085815260200190815260200160002060050154146112095760036000848152602001908152602001600020600501549150506113ab565b60016000848152602001908152602001600020600401544210156112315760009150506113ab565b60036000848152602001908152602001600020600301546001600085815260200190815260200160002060050154111561130857600160036000858152602001908152602001600020600501819055506003600084815260200190815260200160002060020160009054906101000a900473ffffffffffffffffffffffffffffffffffffffff1673ffffffffffffffffffffffffffffffffffffffff166108fc829081150290604051600060405180830381858888f193505050501580156112fd573d6000803e3d6000fd5b5060019150506113ab565b60026003600085815260200190815260200160002060050181905550600291506001600084815260200190815260200160002060010160009054906101000a900473ffffffffffffffffffffffffffffffffffffffff1673ffffffffffffffffffffffffffffffffffffffff166108fc829081150290604051600060405180830381858888f193505050501580156113a4573d6000803e3d6000fd5b5060029150505b919050565b828054600181600116156101000203166002900490600052602060002090601f016020900481019282601f106113f157805160ff191683800117855561141f565b8280016001018555821561141f579182015b8281111561141e578251825591602001919060010190611403565b5b50905061142c919061153a565b5090565b8280548282559060005260206000209081019282156114a9579160200282015b828111156114a85782518260006101000a81548173ffffffffffffffffffffffffffffffffffffffff021916908373ffffffffffffffffffffffffffffffffffffffff16021790555091602001919060010190611450565b5b5090506114b6919061155f565b5090565b828054600181600116156101000203166002900490600052602060002090601f016020900481019282601f106114fb57805160ff1916838001178555611529565b82800160010185558215611529579182015b8281111561152857825182559160200191906001019061150d565b5b509050611536919061153a565b5090565b61155c91905b80821115611558576000816000905550600101611540565b5090565b90565b61159f91905b8082111561159b57600081816101000a81549073ffffffffffffffffffffffffffffffffffffffff021916905550600101611565565b5090565b9056fea165627a7a723058203b534bb6609bf5fa959f0e49635da9cb9a05e4e1fa876019ab709e9a640aeab00029",
  "source": "pragma solidity ^0.5.0;\n\n\ncontract AddContracts {\n    // Model a Candidate\n\n    struct Add {\n        int id;\n        address payable websiteOwner; \n        string webUrl;\n        uint price;\n        uint time;\n        uint views;\n        bool purchased;\n        string add;\n    }\n    struct Purchase {\n        int id;\n        string webUrl;\n        address payable addBuyer;\n        uint views;\n        address[] viewers;\n        int status;\n    }\n\n    string default_add = \"HEELO\";\n\n    mapping(int => Add) public adds;\n    int public addCount;\n\n    mapping(int => Purchase) public purchases;\n    int public purchasesCount;\n\n    // voted event\n    event purchaseEvent (\n        int indexed _addId\n    );\n\n    event insertEvent (\n        int indexed _addId\n    );\n\n    constructor() public {}\n\n    function insertAdd (string memory _webUrl, uint _price, uint _time, uint _views) public returns (int addId) {\n        addCount ++;\n        adds[addCount] = Add(addCount, msg.sender, _webUrl, _price, _time, _views, false, default_add);\n\n        emit insertEvent(addCount);\n        return addCount;\n    }\n\n    function purchase (int _addId, string memory _add) public payable {\n        require(_addId > 0 && _addId <= addCount);\n        require(msg.value >= adds[_addId].price);\n\n        purchasesCount++;\n        purchases[purchasesCount] = Purchase(_addId, adds[_addId].webUrl, msg.sender, 0, new address[](0), 0);\n\n        adds[_addId].purchased = true;\n        adds[_addId].add = _add;\n        adds[_addId].time = now + adds[_addId].time*60;\n        \n\n        emit purchaseEvent(_addId);\n    }\n\n    function getAdd (int _addId) public returns (string memory add) {\n        require(_addId > 0 && _addId <= addCount);\n\n        if (now > adds[_addId].time){\n            if(purchases[_addId].status == 0){\n                purchaseStatus(_addId);\n            }\n            return default_add;\n        }\n\n        for (uint i=0; i<purchases[_addId].views; i++) {\n            if(purchases[_addId].viewers[i] == msg.sender){\n                return adds[_addId].add;\n            }\n        }\n        purchases[_addId].viewers.push(msg.sender);\n        purchases[_addId].views = purchases[_addId].views + 1;\n\n        return adds[_addId].add;\n    }\n\n    function purchaseStatus (int _addId) public returns (int status) {\n        require(_addId > 0 && _addId <= addCount);\n\n        uint fixPrice = adds[_addId].price * 1000000000000000000;\n\n        if(purchases[_addId].status != 0){\n            return purchases[_addId].status;\n        }\n\n        if(now < adds[_addId].time){\n            return 0;\n        }\n        if(adds[_addId].views > purchases[_addId].views){\n            purchases[_addId].status = 1;\n            purchases[_addId].addBuyer.transfer(fixPrice);\n            return 1;\n        }\n        purchases[_addId].status = 2;\n        status = 2;\n        adds[_addId].websiteOwner.transfer(fixPrice);\n        return 2;\n    }\n\n\n}",
  "sourcePath": "/home/tomerk/bgu/mini2/elections2/contracts/AddContracts.sol",
  "compiler": {
    "name": "solc",
    "version": "0.5.8+commit.23d335f2.Emscripten.clang"
  },
  "schemaVersion": "3.0.11",
  "updatedAt": "2019-08-03T09:02:54.015Z",
  "devdoc": {
    "methods": {}
  },
  "userdoc": {
    "methods": {}
  }
}